:1000000005308A000B2D0000FF00030E8301A100C4
:100010000A08A0008A010408A2007708A300780853
:10002000A4007908A5007A08A600831383128B1E0A
:100030001B280B192C28220884002308F700240809
:10004000F8002508F9002608FA0020088A00210E89
:100050008300FF0E7F0E09008A110A1245280A103C
:100060008A100A11820728340C34013406340A102D
:100070008A100A118207013402340334043405342F
:1000800006340734083409340A34E7308100A808FC
:10009000031D502827112708831687008312071590
:1000A00029082802031C5A282711270883168700CD
:1000B00083120711A80A2808323C0319A801AB0AC9
:1000C0000319AC0A2C08003C03188128FF3A031DD1
:1000D0006D282B08403C03188128AC01AB012D088A
:1000E000AA072A08083C03187828FF30AD007D28AD
:1000F000AA08031D7D280130AD002A083720F8002A
:10010000A9000B118A110A121B280C00D230E4300E
:100110007210C330EC34F334F93772170001D43065
:10012000F230EE34F93772172E1700000C00C3249A
:10013000D3244D10C22ACC2A4E22D5100001CD3234
:10014000F330E6323A10A519CC3AA0316D004030B8
:100150008400831300080319BB280130F800F7015D
:10016000F70BB028F80BAF284A30F700F70BB6288A
:10017000B928800BAD2808004718C0288811C1286D
:100180008815831688118312C718C8280812C92831
:1001900008168316081283124719D0288812D1280E
:1001A0008816831688128312C719D8280813D928ED
:1001B0000817831608130000831208158316081108
:1001C000E128831208118316081183120800C80160
:1001D000831688150030831288190130C8048316ED
:1001E000081600308312081A0130F7000310F70DCB
:1001F0007708C8048316881600308312881A0130E5
:10020000F700F70DF70DFC30F7057708C8048316E3
:10021000081700308312081B0130F700F70DF70DA7
:10022000F70DF830F7057708C8044808F80008000B
:1002300083160811081088108312081083160810FE
:1002400088150816881608178312881483168810D4
:100250000000831208158316081100008312E7209E
:100260007808C700081183160811000083120815CA
:100270008316081100008312E7207808C6000811D1
:100280008316081188110812881208138312470E6A
:10029000F700F030F70577084604F8007808C60044
:1002A000C61F542983162029C408031D5929081084
:1002B0005A29081483160810000083128810831628
:1002C0008810000083120811831608118312450E4E
:1002D000C6000F30C6054608C700BC2045080F39C8
:1002E000C600C700BC2008002230831686000030FC
:1002F00087008312A700831688000108C0390238DE
:100300008100E730831281008B16C0308B0495305A
:1003100090008E018F018E018316881108128812B9
:10032000081308110810881083120810831608108B
:1003300083128810831688108312081183160811FF
:100340000F308312C000A7200130B4003408033CF2
:10035000031CB2290330C700BC200530C000A72011
:10036000B40AA6290230C700BC200530C000A7206F
:10037000B4013408033C031CC62934082F20B500FF
:10038000C4013508C5001821B40AB9298A110A1216
:10039000262D410BCC29CF294030C200D029C201E3
:1003A00001304002C20742088038C300C40143083C
:1003B000C500182108003F08073A0319E9290B3A3C
:1003C0000319EE29063A0319F629023A0319FC2902
:1003D000012A0130C000C100C921062AC401013030
:1003E000C50018210230C000A720062A0130C00035
:1003F0000230C100C921062AC4011030C5001821ED
:10040000062A0130C4003F08C500182108000B0867
:10041000B6008B13831603178C170C140000000012
:1004200083120C087F3903194E2A0313B7000317F0
:100430000D080313B80003170F080313B90037089A
:10044000BF00DB21380803178D0003133908031799
:100450008F0083168C170C140000000083120C0D03
:100460000E0D7F3903194E2A0313B70003170D0829
:100470000313B80003170F080313B9003708BF00B0
:10048000DB21380803178D000313390803178F0089
:100490008D0A03198F0A03130A2A03170313B61BC5
:1004A0008B170800B501B401853003178D000030AB
:1004B0008F00031307220130C000C100C92186301C
:1004C00003178D0000308F00031307220130C00096
:1004D0000230C100C9218F3003178D0000308F001A
:1004E0000313072283160610831206140230F70046
:1004F000F70B782A7B2A0000831606108312061059
:100500008E018F018E0183168614831286189E2A0F
:100510000F08FA000E08F7000F087A02031D882A58
:100520007708B6007A08B7003708133C031C9E2AE8
:10053000031D832A3608873C0318832A0F08FA0014
:100540000E08F7000F087A02031D9E2A7708B600EE
:100550007A08B7003708123C0318B52AFF3A031D82
:10056000B42A3608873C031C082D8E018F018E01AA
:10057000831686148312861CD42A3508613C031C1A
:10058000D42A031DC72A3408A73C031CD42A0F0809
:10059000FA000E08F7000F087A02031DC72A770831
:1005A000B4007A08B500B82A3508603C0318DF2A81
:1005B000FF3A031DDE2A3408A73C031C082D35082A
:1005C000B7003408B6008E30F7003708F800360858
:1005D000F900FA01F808031DF72A7908F800F90173
:1005E0000830F702F808031DF72AF701FF2A031065
:1005F000F81BFE2AF90DF80DF703F72AF8137A080D
:10060000B9007908B8007808B7007708B600310853
:10061000BD003008BC002F08BB002E08BA00360809
:100620000319D42BC2003A080319D42BC202031CAD
:100630001E2B7F30C2070318D42B242B8130C2021B
:10064000031CD42B0319D42B4208F700F801F9013D
:10065000FA01C1013708C000C0173808BF003908C7
:10066000BE001930C2003D08BE020318472B0130FE
:10067000BF020318472BC0020318472BC1020318FF
:10068000472BC10AC00ABF0A3D08BE07792B3C08A8
:10069000BF020318622B0130C0020318622BC10293
:1006A0000318622BC10AC00A3C08BF073D08BE07F9
:1006B000031C792BBF0A031D792BC00A031D792B5C
:1006C000C10A792B3B088038C0020318782B01300F
:1006D000C1020318782BC10A3B088038C0073C08C8
:1006E000BF07031C562BC00A031D562BC10A562BED
:1006F0007A14C20B7C2B872B0310BE0DBF0DC00DCF
:10070000C10D0310FA0DF90DF80DC30D332B431C69
:100710008F2B0310F80CF90CFA0CC30C922BF70377
:100720000319D42BC31BBB2B0310BE0DBF0DC00D73
:10073000C10D3D08BE020318A72B0130BF020318EC
:10074000A72BC0020318A72BC102031CCA2B3C080D
:10075000BF020318B22B0130C0020318B22BC10232
:10076000031CCA2B3B088038C0020318BB2B013086
:10077000C102031CCA2BFA0A031DCA2BF90A031D66
:10078000CA2BF80A031DCA2BF70A0319D42BF80C3D
:10079000F90CFA0C3708C2003B08C206C21FD22B64
:1007A000F817D82BF813D82BF701F801F901FA0143
:1007B0007A08B9007908B8007808B7007708B60059
:1007C0008E30F7003608F7023708F9003808F800CD
:1007D000F917F7080319F72B0310F908031DF32B7A
:1007E000F8080319F72BF90CF80CF70BEC2BB71FD3
:1007F000FE2BF809F909F80A0319F90A7908B30078
:100800007808B200B308031D082D3208133C031CFE
:10081000082DB208031D0F2CB3080319082D0B1364
:100820008B138B1B102C963003178D0000308F001C
:10083000031307220130C000C100C92197300317FC
:100840008D0000308F00031307220130C0000230FA
:10085000C100C9219F3003178D0000308F000310A5
:1008600008300313B6000B08B7008B138316031769
:100870008C170C14000000000318652C83120C0860
:100880007F390313B80003170D080313B9000317CA
:100890000F080313BA003808BF00DB21390803171B
:1008A0008D0003133A0803178F0083168C170C145E
:1008B0000000000083120313B60B5F2C622C83161A
:1008C0000317652C842C8316031783120C0D0E0D51
:1008D0007F390313B80003170D080313B90003177A
:1008E0000F080313BA003808BF00DB2139080317CB
:1008F0008D0003133A0803178F008D0A03198F0A1E
:1009000003100313B60B362CB71B8B170230840071
:100910003308B7003208B600BE010408BD003E101F
:10092000831B3E14370EF038B900B907E23EBA0017
:10093000323EBC0037080F39BA07BA07BC07E93E98
:10094000BB00BB07BB07360E0F39BB07BC07BB0D8F
:10095000BC0DBC09BC0D36080F39BC07B90D0730FA
:10096000B8000A30BC07BB03031CB22CBB07BA0398
:10097000031CB62CBA07B903031CBA2CB907B80379
:10098000031CBE2C38308400831307303D053D1313
:1009900084073C30040203193D170008F700031DCB
:1009A000D92C3D1BD92C3D1AEB2CBD19D92C20304C
:1009B000DC2CBD153D123030F707B7010408B60036
:1009C0003710831B37147708BF00DB2136088400FB
:1009D000831337188317840A3D1FC92C2030BF00AA
:1009E000DB216330BF00DB216D30BF00DB218316CC
:1009F0000612831206160C30B600FA30C000A7208B
:100A0000B60BFD2C8316061283120612C0308B041F
:100A10008A110A12272DFF30A700A801A901AA01F7
:100A2000AC01AB010130AD00B101B0017030AF00DD
:100A30008330AE0083161F149F141F159F110730BB
:100A40009C0083131F30830583127429522A262D9C
:020A5000630041
:02400E00713F00
:00000001FF
;PIC16F877A
;CRC=B2C6  CREATED="02-Oca-25 00:23"
